{
  "contractName": "IPFS",
  "abi": [
    {
      "inputs": [
        {
          "internalType": "uint256",
          "name": "",
          "type": "uint256"
        }
      ],
      "name": "functions",
      "outputs": [
        {
          "internalType": "string",
          "name": "cid",
          "type": "string"
        },
        {
          "internalType": "address",
          "name": "uploader",
          "type": "address"
        },
        {
          "internalType": "uint256",
          "name": "timestamp",
          "type": "uint256"
        },
        {
          "internalType": "string",
          "name": "name",
          "type": "string"
        }
      ],
      "stateMutability": "view",
      "type": "function",
      "constant": true
    },
    {
      "inputs": [
        {
          "internalType": "string",
          "name": "_cid",
          "type": "string"
        },
        {
          "internalType": "string",
          "name": "_name",
          "type": "string"
        }
      ],
      "name": "registerFunction",
      "outputs": [],
      "stateMutability": "nonpayable",
      "type": "function"
    },
    {
      "inputs": [],
      "name": "getCount",
      "outputs": [
        {
          "internalType": "uint256",
          "name": "",
          "type": "uint256"
        }
      ],
      "stateMutability": "view",
      "type": "function",
      "constant": true
    },
    {
      "inputs": [
        {
          "internalType": "uint256",
          "name": "index",
          "type": "uint256"
        }
      ],
      "name": "getFunction",
      "outputs": [
        {
          "internalType": "string",
          "name": "cid",
          "type": "string"
        },
        {
          "internalType": "address",
          "name": "uploader",
          "type": "address"
        },
        {
          "internalType": "uint256",
          "name": "timestamp",
          "type": "uint256"
        },
        {
          "internalType": "string",
          "name": "name",
          "type": "string"
        }
      ],
      "stateMutability": "view",
      "type": "function",
      "constant": true
    }
  ],
  "bytecode": "0x608060405234801561001057600080fd5b50610c40806100206000396000f3fe608060405234801561001057600080fd5b506004361061004c5760003560e01c80630e097de7146100515780637451a9fa14610084578063a87d942c146100a0578063eac0bd90146100be575b600080fd5b61006b60048036038101906100669190610569565b6100f1565b60405161007b9493929190610676565b60405180910390f35b61009e600480360381019061009991906107fe565b6102be565b005b6100a86103a3565b6040516100b59190610876565b60405180910390f35b6100d860048036038101906100d39190610569565b6103af565b6040516100e89493929190610676565b60405180910390f35b60606000806060600080549050851061013f576040517f08c379a0000000000000000000000000000000000000000000000000000000008152600401610136906108dd565b60405180910390fd5b6000808681548110610154576101536108fd565b5b90600052602060002090600402019050806000018160010160009054906101000a900473ffffffffffffffffffffffffffffffffffffffff168260020154836003018380546101a29061095b565b80601f01602080910402602001604051908101604052809291908181526020018280546101ce9061095b565b801561021b5780601f106101f05761010080835404028352916020019161021b565b820191906000526020600020905b8154815290600101906020018083116101fe57829003601f168201915b5050505050935080805461022e9061095b565b80601f016020809104026020016040519081016040528092919081815260200182805461025a9061095b565b80156102a75780601f1061027c576101008083540402835291602001916102a7565b820191906000526020600020905b81548152906001019060200180831161028a57829003601f168201915b505050505090509450945094509450509193509193565b600060405180608001604052808481526020013373ffffffffffffffffffffffffffffffffffffffff16815260200142815260200183815250908060018154018082558091505060019003906000526020600020906004020160009091909190915060008201518160000190816103359190610b38565b5060208201518160010160006101000a81548173ffffffffffffffffffffffffffffffffffffffff021916908373ffffffffffffffffffffffffffffffffffffffff16021790555060408201518160020155606082015181600301908161039c9190610b38565b5050505050565b60008080549050905090565b600081815481106103bf57600080fd5b90600052602060002090600402016000915090508060000180546103e29061095b565b80601f016020809104026020016040519081016040528092919081815260200182805461040e9061095b565b801561045b5780601f106104305761010080835404028352916020019161045b565b820191906000526020600020905b81548152906001019060200180831161043e57829003601f168201915b5050505050908060010160009054906101000a900473ffffffffffffffffffffffffffffffffffffffff169080600201549080600301805461049c9061095b565b80601f01602080910402602001604051908101604052809291908181526020018280546104c89061095b565b80156105155780601f106104ea57610100808354040283529160200191610515565b820191906000526020600020905b8154815290600101906020018083116104f857829003601f168201915b5050505050905084565b6000604051905090565b600080fd5b600080fd5b6000819050919050565b61054681610533565b811461055157600080fd5b50565b6000813590506105638161053d565b92915050565b60006020828403121561057f5761057e610529565b5b600061058d84828501610554565b91505092915050565b600081519050919050565b600082825260208201905092915050565b60005b838110156105d05780820151818401526020810190506105b5565b60008484015250505050565b6000601f19601f8301169050919050565b60006105f882610596565b61060281856105a1565b93506106128185602086016105b2565b61061b816105dc565b840191505092915050565b600073ffffffffffffffffffffffffffffffffffffffff82169050919050565b600061065182610626565b9050919050565b61066181610646565b82525050565b61067081610533565b82525050565b6000608082019050818103600083015261069081876105ed565b905061069f6020830186610658565b6106ac6040830185610667565b81810360608301526106be81846105ed565b905095945050505050565b600080fd5b600080fd5b7f4e487b7100000000000000000000000000000000000000000000000000000000600052604160045260246000fd5b61070b826105dc565b810181811067ffffffffffffffff8211171561072a576107296106d3565b5b80604052505050565b600061073d61051f565b90506107498282610702565b919050565b600067ffffffffffffffff821115610769576107686106d3565b5b610772826105dc565b9050602081019050919050565b82818337600083830152505050565b60006107a161079c8461074e565b610733565b9050828152602081018484840111156107bd576107bc6106ce565b5b6107c884828561077f565b509392505050565b600082601f8301126107e5576107e46106c9565b5b81356107f584826020860161078e565b91505092915050565b6000806040838503121561081557610814610529565b5b600083013567ffffffffffffffff8111156108335761083261052e565b5b61083f858286016107d0565b925050602083013567ffffffffffffffff8111156108605761085f61052e565b5b61086c858286016107d0565b9150509250929050565b600060208201905061088b6000830184610667565b92915050565b7f496e646578206f7574206f662072616e67650000000000000000000000000000600082015250565b60006108c76012836105a1565b91506108d282610891565b602082019050919050565b600060208201905081810360008301526108f6816108ba565b9050919050565b7f4e487b7100000000000000000000000000000000000000000000000000000000600052603260045260246000fd5b7f4e487b7100000000000000000000000000000000000000000000000000000000600052602260045260246000fd5b6000600282049050600182168061097357607f821691505b6020821081036109865761098561092c565b5b50919050565b60008190508160005260206000209050919050565b60006020601f8301049050919050565b600082821b905092915050565b6000600883026109ee7fffffffffffffffffffffffffffffffffffffffffffffffffffffffffffffffff826109b1565b6109f886836109b1565b95508019841693508086168417925050509392505050565b6000819050919050565b6000610a35610a30610a2b84610533565b610a10565b610533565b9050919050565b6000819050919050565b610a4f83610a1a565b610a63610a5b82610a3c565b8484546109be565b825550505050565b600090565b610a78610a6b565b610a83818484610a46565b505050565b5b81811015610aa757610a9c600082610a70565b600181019050610a89565b5050565b601f821115610aec57610abd8161098c565b610ac6846109a1565b81016020851015610ad5578190505b610ae9610ae1856109a1565b830182610a88565b50505b505050565b600082821c905092915050565b6000610b0f60001984600802610af1565b1980831691505092915050565b6000610b288383610afe565b9150826002028217905092915050565b610b4182610596565b67ffffffffffffffff811115610b5a57610b596106d3565b5b610b64825461095b565b610b6f828285610aab565b600060209050601f831160018114610ba25760008415610b90578287015190505b610b9a8582610b1c565b865550610c02565b601f198416610bb08661098c565b60005b82811015610bd857848901518255600182019150602085019450602081019050610bb3565b86831015610bf55784890151610bf1601f891682610afe565b8355505b6001600288020188555050505b50505050505056fea2646970667358221220442a91c7eadb19f8bb4005e73efd3bdd27f64d87575608051e91f4c0d0a489bc64736f6c63430008130033",
  "immutableReferences": {},
  "source": "// SPDX-License-Identifier: MIT\r\npragma solidity ^0.8.19;\r\n\r\ncontract IPFS {\r\n    // Struct to store function metadata\r\n    struct FunctionReg {\r\n        string cid;         // IPFS CID for the function code\r\n        address uploader;   // Address of who registered the function\r\n        uint timestamp;     // When it was registered\r\n        string name;        // User-defined label (e.g. 'hello-world')\r\n    }\r\n    \r\n    FunctionReg[] public functions;\r\n\r\n    // Register a new function\r\n    function registerFunction(string memory _cid, string memory _name) public {\r\n        functions.push(FunctionReg({\r\n            cid: _cid,\r\n            uploader: msg.sender,\r\n            timestamp: block.timestamp,\r\n            name: _name\r\n        }));\r\n    }\r\n\r\n    // Get the number of registered functions\r\n    function getCount() public view returns (uint) {\r\n        return functions.length;\r\n    }\r\n\r\n    // Get function metadata by index\r\n    function getFunction(uint index) public view returns (\r\n        string memory cid,\r\n        address uploader,\r\n        uint timestamp,\r\n        string memory name\r\n    ) {\r\n        require(index < functions.length, \"Index out of range\");\r\n        FunctionReg storage f = functions[index];\r\n        return (f.cid, f.uploader, f.timestamp, f.name);\r\n    }\r\n}\r\n",
  "sourcePath": "C:\\Users\\Blue Lemons\\Desktop\\study materials\\projects\\ipfs-faas-service\\my-truffle-project\\contracts\\ipfs.sol",
  "compiler": {
    "name": "solc",
    "version": "0.8.19+commit.7dd6d404.Emscripten.clang"
  },
  "schemaVersion": "3.4.16",
  "updatedAt": "2025-11-11T12:37:39.096Z",
  "networkType": "ethereum",
  "devdoc": {
    "kind": "dev",
    "methods": {},
    "version": 1
  },
  "userdoc": {
    "kind": "user",
    "methods": {},
    "version": 1
  }
}